:0300000002092AC8
:03000B00020425C7
:10000E00C0E0C0D0C000C001C002E4F53CF53DF533
:10001E003EF53FF5407A20E533A2E779047830E6E5
:10002E0033F608D9FA7905783CE636D4F608D9F9CC
:10003E00DAE5D002D001D000D0D0D0E022C0E0C0AE
:10004E00D0C000C001C002E4F53CF53DF53EF53FE1
:10005E00F5407A20E533A2E779047830E633F608E6
:10006E00D9FA7905783CC0D0E6243320E70224D0B3
:10007E0020E30224FDD0D033F608D9EADAD6D00236
:10008E00D001D000D0D0D0E022C0E0C0D0C000C09F
:10009E0001C0027A207905C37840E613C0D030E75C
:1000AE000224D030E30224FDF618D0D0D9EC790426
:1000BE007833E613F618D9FADADBD002D001D00085
:1000CE00D0D0D0E022C0E0C0D0E5302534F530E508
:1000DE00313535F531E5323536F532E5333537F52F
:1000EE0033D0D0D0E022C0E0C0D0C3E5309534F597
:1000FE0030E5319535F531E5329536F532E5339506
:10010E0037F533D0D0D0E022C0E0C0D0C3E5309573
:10011E0034E5319535E5329536E53395379200D095
:10012E00D0D0E022C0E0C0D0C3E5349530E535959F
:10013E0031E5369532E53795339200D0D0D0E022B6
:10014E00C0E0C0D0C200C3E53495307014E53595DB
:10015E0031700EE53695327008E53795337002D260
:10016E0000D0D0D0E02212014E2000030201322234
:10017E0012014E20000302011622C0E0C0F0C0D0D2
:10018E00C000C001C002C003E5308534F0A4F8A958
:10019E00F0E5318534F0A429F9E435F0FAE530853F
:1001AE0035F0A429F9E5F03AFAE433FBE53285346B
:1001BE00F0A42AFAE5F03BFBE5318535F0A42AFAE6
:1001CE00E5F03BFBE5308536F0A42AFAE5F03BFB83
:1001DE00E5338534F0A42BFBE5328535F0A42BFBFB
:1001EE00E5318536F0A42BFBE5308537F0A42BFBEB
:1001FE008B338A3289318830D003D002D001D000BF
:10020E00D0D0D0F0D0E022C0E0C0D0C000C001C03D
:10021E0002C003C0047C20E4F8F9FAFBC3E53033D6
:10022E00F530E53133F531E53233F532E53333F57B
:10023E0033E833F8E933F9EA33FAEB33FBC3E895E5
:10024E0034E99535EA9536EB95374013E89534F851
:10025E00E99535F9EA9536FAEB9537FB433001DC33
:10026E00BBD004D003D002D001D000D0D0D0E02239
:10027E0085303485313585323685333722E530C5C4
:10028E0034F530E531C535F531E532C536F532E5B3
:06029E0033C537F53322E1
:1002A400C00078B10000D8FCD00022C000C00179A1
:1002B4002D78A6D8FED9FADAF6D001D00022D2B32E
:1002C4001202A4C2B322A2E792B7A2E692B6A2E5B2
:1002D40092B5A2E492B41202C21202A4A2E392B7AB
:1002E400A2E292B6A2E192B5A2E092B41202C222B4
:1002F400D2B20202CAC2B20202CAC2B37433120236
:10030400F974331202F974321202F974281202F9E0
:10031400740C1202F974011202F9C0027A02120278
:10032400AFD00222E49360061202F4A380F62244C2
:100334004044800202F9C0E0E8C4540F4430120281
:10034400F4E8540F44301202F4D0E022506C617986
:10035400657220313A2000506C6179657220323A1E
:10036400200057696E6E657221004C6F7365723A96
:10037400280057656C636F6D6520746F2066617328
:100384007400616E6420667572696F757321002054
:100394002020202020202020202020202020200079
:1003A40050617573656400546869732069732068CB
:1003B400696768206672657100546869732069739F
:1003C400206C6F77206672657100536C6170203DFC
:1003D400202B3120706F696E742100536C61702082
:1003E4003D202D3120706F696E7421005069616E5B
:1003F4006F206D6F646500506C6179206E6F746559
:100404007320412026204200E58954F04401F589F7
:10041400758CE9758AD375F4E975F2D3D2A9D28CB7
:1004240022B2913275C80075CB0075CA0022853896
:1004340030853931853A32853B337534FD75354322
:100444007536037537001201887534C375359E758A
:1004540036267537001200D3853038853139853218
:100464003A85333B22C002AA381202AFD002C0023E
:10047400AA391202AFD002C002AA3A1202AFD002C5
:10048400C002AA3B1202AFD0022220C5FDC0027AEC
:10049400321202AFD00220C5F130C5FD227AB07904
:1004A400FA78A6D8FED9FADAF622C0E0740114125A
:1004B4000335D0E0C083C082C0E0900376120328E5
:1004C400D0E0D082D083C0E0740114120333D0E0B2
:1004D400C083C082C0E0900386120328D0E0D0829B
:1004E400D083C28C75F4A375F24CD28CC0027A9678
:1004F4001202AFD002C0027A961202AFD002C0E05C
:10050400740114120335D0E0C083C082C0E09003AC
:1005140093120328D0E0D082D083C0E07401141277
:100524000333D0E0C083C082C0E090039312032859
:10053400D0E0D082D083B28CC0027A321202AFD023
:1005440002C0027A321202AFD002C0027A32120220
:10055400AFD002D28CC0E0740114120335D0E0C0D5
:1005640083C082C0E0900376120328D0E0D082D00A
:1005740083C0E0740114120333D0E0C083C082C08E
:10058400E0900386120328D0E0D082D083C28C7519
:10059400F4A375F24CD28CC0027A961202AFD00248
:1005A400C0027A961202AFD002C0E07401141203A2
:1005B40035D0E0C083C082C0E0900393120328D0FA
:1005C400E0D082D083C0E0740114120333D0E0C0C1
:1005D40083C082C0E0900393120328D0E0D082D07D
:1005E40083B28CC0027A321202AFD002C0027A32D5
:1005F4001202AFD002C0027A321202AFD002D28C01
:10060400C0E0740114120335D0E0C083C082C0E09E
:10061400900376120328D0E0D082D083C0E0740126
:1006240014120333D0E0C083C082C0E0900386126A
:100634000328D0E0D082D083C28C75F4A375F24C29
:10064400D28CC0027A961202AFD002C0027A9612FD
:1006540002AFD002C0E0740114120335D0E0C083AD
:10066400C082C0E0900393120328D0E0D082D083EC
:10067400C0E0740114120333D0E0C083C082C0E030
:10068400900393120328D0E0D082D083B28CC002AE
:100694007A321202AFD002C0027A321202AFD00212
:1006A400C0027A321202AFD002D28CC0E0740114BC
:1006B400120335D0E0C083C082C0E09003761203F9
:1006C40028D0E0D082D083C0E0740114120333D068
:1006D400E0C083C082C0E0900386120328D0E0D03B
:1006E40082D083C28C75F4A375F24CD28CC0027A8A
:1006F400961202AFD002C0027A961202AFD002C0A4
:10070400E0740114120335D0E0C083C082C0E090CD
:100714000393120328D0E0D082D083C0E074011484
:10072400120333D0E0C083C082C0E090039312036D
:1007340028D0E0D082D083B28CC0027A321202AFC9
:10074400D002C0027A321202AFD002C0027A321250
:1007540002AFD002D28CC0E0740114120335D0E091
:10076400C083C082C0E0900376120328D0E0D08218
:10077400D083C0E0740114120333D0E0C083C0827C
:10078400C0E0900386120328D0E0D082D083C28CCC
:1007940075F4A375F24CD28CC0027A961202AFD0D3
:1007A40002C0027A961202AFD002C0E074011412A1
:1007B4000335D0E0C083C082C0E0900393120328C5
:1007C400D0E0D082D083C0E0740114120333D0E0AF
:1007D400C083C082C0E0900393120328D0E0D0828B
:1007E400D083B28CC0027A4B1202AFD002D28CC03A
:1007F400E0740114120335D0E0C083C082C0E090DD
:100804000376120328D0E0D082D083C0E0740114B0
:10081400120333D0E0C083C082C0E0900386120389
:1008240028D0E0D082D083C28C75F4A875F28DD222
:100834008CC0027A961202AFD002C0027A961202DB
:10084400AFD002C0E0740114120335D0E0C083C0FD
:1008540082C0E0900393120328D0E0D082D083C0FA
:10086400E0740114120333D0E0C083C082C0E0906E
:100874000393120328D0E0D082D083B28CC0027AD2
:100884004B1202AFD002D28CC0E0740114120335B3
:10089400D0E0C083C082C0E0900376120328D0E089
:1008A400D082D083C0E0740114120333D0E0C0833B
:1008B400C082C0E0900386120328D0E0D082D083A7
:1008C400C28C75F4BA75F28CD28CC0E07401141227
:1008D4000335D0E0C083C082C0E0900393120328A4
:1008E400D0E0D082D083C0E0740114120333D0E08E
:1008F400C083C082C0E0900393120328D0E0D0826A
:10090400D083C0027A961202AFD002C0027A961245
:1009140002AFD002B28C30C5070206021204AE2226
:1009240030C5FD02098275817F12042812040C125D
:1009340002FED2AFD2A0D2A1D2917552007554005A
:10094400750300C0E0740114120335D0E0C083C005
:1009540082C0E0900376120328D0E0D082D083C016
:10096400E0740114120333D0E0C083C082C0E0906D
:100974000386120328D0E0D082D0831204AE12047E
:10098400A11204A1C0E0740114120335D0E0C083A5
:10099400C082C0E0900393120328D0E0D082D083B9
:1009A400C0E0740114120333D0E0C083C082C0E0FD
:1009B400900393120328D0E0D082D083C0E0740166
:1009C40014120335D0E0C083C082C0E09003AB12A0
:1009D4000328D0E0D082D083C0E074011412033322
:1009E400D0E0C083C082C0E09003CE120328D0E0E0
:1009F400D082D083C28C75F4EA75F2E8D28C1204EA
:100A0400A11204A1B28C1204A11204A1C0E07401C9
:100A140014120335D0E0C083C082C0E09003931267
:100A24000328D0E0D082D083C0E0740114120333D1
:100A3400D0E0C083C082C0E0900393120328D0E0CA
:100A4400D082D083C0E0740114120335D0E0C08397
:100A5400C082C0E09003BD120328D0E0D082D083CE
:100A6400C0E0740114120333D0E0C083C082C0E03C
:100A74009003DF120328D0E0D082D083C28C75F4B7
:100A8400E975F2D3D28C1204A11204A1B28C12041F
:100A9400A11204A17405B55203020CDEB55403027D
:100AA4000D8C1204A1C0E0740114120335D0E0C00F
:100AB40083C082C0E0900393120328D0E0D082D098
:100AC40083C0E0740114120333D0E0C083C082C039
:100AD400E0900393120328D0E0D082D083C0E07466
:100AE4000114120335D0E0C083C082C0E0900350EB
:100AF400120328D0E0D082D083C0E0740A14120319
:100B040035D0E0C000A85212033AD000C0E074010E
:100B140014120333D0E0C083C082C0E090035B12A0
:100B24000328D0E0D082D083C0E0740A14120333C7
:100B3400D0E0C000A85412033AD000C201C202128D
:100B44000432E539A2E3920430C5028063C0E07444
:100B54000114120335D0E0C083C082C0E090039337
:100B6400120328D0E0D082D083C0E07401141203B1
:100B740033D0E0C083C082C0E0900393120328D036
:100B8400E0D082D083C0E0740114120335D0E0C0F9
:100B940083C082C0E09003A4120328D0E0D082D0A6
:100BA4008330C5FD1204A11204A11204A1020A9803
:100BB40020043B1204A1120469C28C75F4EA75F294
:100BC400E8D28CC0027AC81202AFD002C0027AC83E
:100BD4001202AFD002C0027A641202AFD002B28C09
:100BE400C0027AC81202AFD002D201020C2D120444
:100BF400A1120469C28C75F4E975F2D3D28CC002D7
:100C04007AC81202AFD002C0027AC81202AFD00270
:100C1400C0027A641202AFD002B28CC0027AC81247
:100C240002AFD002D202120C2DC2CA75CC0075CD0F
:100C34000020A0FD30A0FD7864D2CA20A0FD30A021
:100C4400FDD8F8C2CA85CC3085CD317532007533F4
:100C5400007534787535E67536007537001201165F
:100C6400200043C2CA75CC0075CD0020A1FD30A17F
:100C7400FD7864D2CA20A1FD30A1FDD8F8C2CA858E
:100C8400CC4D85CD4E85CC3085CD31753200753354
:100C9400007534387535C77536007537001201167E
:100CA40020000B020A98C20020010B20020DC20092
:100CB4002001152002170552020A98E503B55203D4
:100CC400020A981552020A980554020A98E503B5D7
:100CD4005403020A981554020A98C0E074011412CD
:100CE4000335D0E0C083C082C0E090039312032890
:100CF400D0E0D082D083C0E0740114120333D0E07A
:100D0400C083C082C0E0900393120328D0E0D08255
:100D1400D083C0E0740114120335D0E0C083C082D4
:100D2400C0E0900350120328D0E0D082D083C0E00A
:100D3400740A14120335D0E0C083C082C0E090036B
:100D440066120328D0E0D082D083C0E0740114126C
:100D54000333D0E0C083C082C0E090035B12032859
:100D6400D0E0D082D083C0E0740A14120333D0E000
:100D7400C083C082C0E090036E120328D0E0D0820A
:100D8400D083120E3A020D16C0E07401141203351A
:100D9400D0E0C083C082C0E0900393120328D0E067
:100DA400D082D083C0E0740114120333D0E0C08336
:100DB400C082C0E0900393120328D0E0D082D08395
:100DC400C0E0740114120333D0E0C083C082C0E0D9
:100DD40090035B120328D0E0D082D083C0E0740A71
:100DE40014120333D0E0C083C082C0E090036612C3
:100DF4000328D0E0D082D083C0E0740114120335FC
:100E0400D0E0C083C082C0E0900350120328D0E039
:100E1400D082D083C0E0740A14120335D0E0C083BA
:100E2400C082C0E090036E120328D0E0D082D08349
:100E3400120E3A020DC4C28C75F4CE75F2E9D28C4E
:100E4400C0027AFA1202AFD002C0027AFA1202AFDA
:100E5400D002B28CC0027A4B1202AFD002D28CC242
:100E64008C75F4B275F218D28CC0027AFA1202AF01
:100E7400D002C0027A641202AFD002B28CC0027AED
:100E8400371202AFD002D28CC28C75F4CE75F2E95F
:100E9400D28CC0027AFA1202AFD002C0027AFA12DD
:100EA40002AFD002B28CC0027A4B1202AFD002D28F
:100EB4008CC28C75F4CB75F2FCD28CC0027AFA1217
:100EC40002AFD002C0027AFA1202AFD002B28CC0D2
:100ED400027A4B1202AFD002D28CC28C75F4B27576
:100EE400F218D28CC0027AFA1202AFD002C0027A8F
:100EF400641202AFD002B28CC0027A371202AFD0B1
:100F040002D28CC28C75F4CB75F2FCD28CC0027AFE
:100F1400FA1202AFD002C0027AFA1202AFD002B2C1
:100F24008CC0027A4B1202AFD002D28CC28C75F400
:100F3400C575F2A0D28CD28CC0027AFA1202AFD05C
:100F440002C0027AFA1202AFD002B28CC0027A4B0B
:100F54001202AFD002D28CC28C75F4A875F28DD275
:100F64008CD28CC0027AFA1202AFD002C0027A6428
:100F74001202AFD002B28CC0027A371202AFD00292
:100F8400D28CC28C75F4C575F2A0D28CD28CC002FE
:100F94007AFA1202AFD002C0027AFA1202AFD00279
:100FA400B28CC0027A4B1202AFD002D28CC28C75C2
:100FB400F4C575F277D28CD28CC0027AFA1202AFE1
:100FC400D002C0027AFA1202AFD002C0027A5012E2
:100FD40002AFD002B28CC0027A641202AFD002D245
:100FE4008CC28C75F4C275F228D28CD28CC0027A71
:100FF400FA1202AFD002C0027AC81202AFD002B213
:101004008CC0027AFA1202AFD00230C504120E3A32
:1010140022C0E0740114120335D0E0C083C082C042
:10102400E0900393120328D0E0D082D083C0E07410
:101034000114120333D0E0C083C082C0E090039354
:10104400120328D0E0D082D083C0E07401141203CC
:1010540035D0E0C083C082C0E09003F0120328D0F2
:10106400E0D082D083C0E0740114120333D0E0C016
:1010740083C082C0E09003FB120328D0E0D082D06A
:1010840083C2CA75CC0075CD0020A0FD30A0FD78C8
:1010940064D2CA20A0FD30A0FDD8F8C2CA85CC30E5
:1010A40085CD317532007533007534787535E67544
:1010B4003600753700120116200043C2CA75CC00F1
:1010C40075CD0020A1FD30A1FD7864D2CA20A1FD18
:1010D40030A1FDD8F8C2CA85CC4D85CD4E85CC3023
:1010E40085CD317532007533007534387535C77563
:1010F4003600753700120116200024021015C28C28
:1011040075F4CE75F2E9D28CC0027AC81202AFD05F
:1011140002B28CC0027A321202AFD002021015C29F
:101124008C75F4A875F28DD28CC0027AC81202AF05
:10113400D002B28CC0027A321202AFD00202101571
:00000001FF
